{
  "contractName": "CourseMarketplace",
  "abi": [
    {
      "inputs": [],
      "stateMutability": "nonpayable",
      "type": "constructor"
    },
    {
      "inputs": [],
      "name": "CourseHasOwner",
      "type": "error"
    },
    {
      "inputs": [],
      "name": "CourseIsNotCreated",
      "type": "error"
    },
    {
      "inputs": [],
      "name": "InvalidState",
      "type": "error"
    },
    {
      "inputs": [],
      "name": "OnlyOwner",
      "type": "error"
    },
    {
      "inputs": [],
      "name": "SenderIsNotCourseOwner",
      "type": "error"
    },
    {
      "inputs": [],
      "name": "isStopped",
      "outputs": [
        {
          "internalType": "bool",
          "name": "",
          "type": "bool"
        }
      ],
      "stateMutability": "view",
      "type": "function",
      "constant": true
    },
    {
      "stateMutability": "payable",
      "type": "receive",
      "payable": true
    },
    {
      "inputs": [
        {
          "internalType": "uint256",
          "name": "amount",
          "type": "uint256"
        }
      ],
      "name": "withdraw",
      "outputs": [],
      "stateMutability": "nonpayable",
      "type": "function"
    },
    {
      "inputs": [],
      "name": "emergencyWithdraw",
      "outputs": [],
      "stateMutability": "nonpayable",
      "type": "function"
    },
    {
      "inputs": [],
      "name": "stopContract",
      "outputs": [],
      "stateMutability": "nonpayable",
      "type": "function"
    },
    {
      "inputs": [],
      "name": "resumeContract",
      "outputs": [],
      "stateMutability": "nonpayable",
      "type": "function"
    },
    {
      "inputs": [
        {
          "internalType": "bytes16",
          "name": "courseId",
          "type": "bytes16"
        },
        {
          "internalType": "bytes32",
          "name": "proof",
          "type": "bytes32"
        }
      ],
      "name": "purchaseCourse",
      "outputs": [],
      "stateMutability": "payable",
      "type": "function",
      "payable": true
    },
    {
      "inputs": [
        {
          "internalType": "bytes32",
          "name": "courseHash",
          "type": "bytes32"
        }
      ],
      "name": "repurchaseCourse",
      "outputs": [],
      "stateMutability": "payable",
      "type": "function",
      "payable": true
    },
    {
      "inputs": [
        {
          "internalType": "bytes32",
          "name": "courseHash",
          "type": "bytes32"
        }
      ],
      "name": "activateCourse",
      "outputs": [],
      "stateMutability": "nonpayable",
      "type": "function"
    },
    {
      "inputs": [
        {
          "internalType": "bytes32",
          "name": "courseHash",
          "type": "bytes32"
        }
      ],
      "name": "deactivateCourse",
      "outputs": [],
      "stateMutability": "nonpayable",
      "type": "function"
    },
    {
      "inputs": [
        {
          "internalType": "address",
          "name": "newOwner",
          "type": "address"
        }
      ],
      "name": "transferOwnership",
      "outputs": [],
      "stateMutability": "nonpayable",
      "type": "function"
    },
    {
      "inputs": [],
      "name": "getCourseCount",
      "outputs": [
        {
          "internalType": "uint256",
          "name": "",
          "type": "uint256"
        }
      ],
      "stateMutability": "view",
      "type": "function",
      "constant": true
    },
    {
      "inputs": [
        {
          "internalType": "uint256",
          "name": "index",
          "type": "uint256"
        }
      ],
      "name": "getCourseHashAtIndex",
      "outputs": [
        {
          "internalType": "bytes32",
          "name": "",
          "type": "bytes32"
        }
      ],
      "stateMutability": "view",
      "type": "function",
      "constant": true
    },
    {
      "inputs": [
        {
          "internalType": "bytes32",
          "name": "courseHash",
          "type": "bytes32"
        }
      ],
      "name": "getCourseByHash",
      "outputs": [
        {
          "components": [
            {
              "internalType": "uint256",
              "name": "id",
              "type": "uint256"
            },
            {
              "internalType": "uint256",
              "name": "price",
              "type": "uint256"
            },
            {
              "internalType": "bytes32",
              "name": "proof",
              "type": "bytes32"
            },
            {
              "internalType": "address",
              "name": "owner",
              "type": "address"
            },
            {
              "internalType": "enum CourseMarketplace.State",
              "name": "state",
              "type": "uint8"
            }
          ],
          "internalType": "struct CourseMarketplace.Course",
          "name": "",
          "type": "tuple"
        }
      ],
      "stateMutability": "view",
      "type": "function",
      "constant": true
    },
    {
      "inputs": [],
      "name": "getContractOwner",
      "outputs": [
        {
          "internalType": "address",
          "name": "",
          "type": "address"
        }
      ],
      "stateMutability": "view",
      "type": "function",
      "constant": true
    }
  ],
  "bytecode": "0x608060405260008060006101000a81548160ff02191690831515021790555034801561002a57600080fd5b5061003a3361003f60201b60201c565b610083565b80600460006101000a81548173ffffffffffffffffffffffffffffffffffffffff021916908373ffffffffffffffffffffffffffffffffffffffff16021790555050565b6118dd806100926000396000f3fe6080604052600436106100e15760003560e01c80636d11290b1161007f578063c4bc5da511610059578063c4bc5da514610296578063d76821cb146102ad578063db2e21bc146102c9578063f2fde38b146102e0576100e8565b80636d11290b14610205578063935d7e6d1461024257806396cfda061461026b576100e8565b80633f683b6a116100bb5780633f683b6a14610156578063442890d5146101815780636136e1eb146101ac57806362e4e6ac146101c8576100e8565b806312253a6c146100ed5780632e1a7d4d14610104578063392625721461012d576100e8565b366100e857005b600080fd5b3480156100f957600080fd5b50610102610309565b005b34801561011057600080fd5b5061012b60048036038101906101269190611206565b610391565b005b34801561013957600080fd5b50610154600480360381019061014f9190611269565b6104cf565b005b34801561016257600080fd5b5061016b61067f565b60405161017891906112b1565b60405180910390f35b34801561018d57600080fd5b50610196610690565b6040516101a3919061130d565b60405180910390f35b6101c660048036038101906101c19190611269565b6106ba565b005b3480156101d457600080fd5b506101ef60048036038101906101ea9190611269565b610845565b6040516101fc9190611434565b60405180910390f35b34801561021157600080fd5b5061022c60048036038101906102279190611206565b610921565b604051610239919061145e565b60405180910390f35b34801561024e57600080fd5b5061026960048036038101906102649190611269565b61093e565b005b34801561027757600080fd5b50610280610bcd565b60405161028d9190611488565b60405180910390f35b3480156102a257600080fd5b506102ab610bd7565b005b6102c760048036038101906102c291906114fb565b610c5f565b005b3480156102d557600080fd5b506102de610e4e565b005b3480156102ec57600080fd5b5061030760048036038101906103029190611567565b610fd8565b005b610311610690565b73ffffffffffffffffffffffffffffffffffffffff163373ffffffffffffffffffffffffffffffffffffffff1614610375576040517f5fc483c500000000000000000000000000000000000000000000000000000000815260040160405180910390fd5b60016000806101000a81548160ff021916908315150217905550565b610399610690565b73ffffffffffffffffffffffffffffffffffffffff163373ffffffffffffffffffffffffffffffffffffffff16146103fd576040517f5fc483c500000000000000000000000000000000000000000000000000000000815260040160405180910390fd5b6000600460009054906101000a900473ffffffffffffffffffffffffffffffffffffffff1673ffffffffffffffffffffffffffffffffffffffff1682604051610445906115c5565b60006040518083038185875af1925050503d8060008114610482576040519150601f19603f3d011682016040523d82523d6000602084013e610487565b606091505b50509050806104cb576040517f08c379a00000000000000000000000000000000000000000000000000000000081526004016104c290611637565b60405180910390fd5b5050565b60008054906101000a900460ff161561051d576040517f08c379a0000000000000000000000000000000000000000000000000000000008152600401610514906116a3565b60405180910390fd5b610525610690565b73ffffffffffffffffffffffffffffffffffffffff163373ffffffffffffffffffffffffffffffffffffffff1614610589576040517f5fc483c500000000000000000000000000000000000000000000000000000000815260040160405180910390fd5b61059281611050565b6105c8576040517f4db0c48300000000000000000000000000000000000000000000000000000000815260040160405180910390fd5b6000600160008381526020019081526020016000209050600060028111156105f3576105f2611355565b5b8160030160149054906101000a900460ff16600281111561061757610616611355565b5b1461064e576040517fbaf3f0f700000000000000000000000000000000000000000000000000000000815260040160405180910390fd5b60018160030160146101000a81548160ff0219169083600281111561067657610675611355565b5b02179055505050565b60008054906101000a900460ff1681565b6000600460009054906101000a900473ffffffffffffffffffffffffffffffffffffffff16905090565b60008054906101000a900460ff1615610708576040517f08c379a00000000000000000000000000000000000000000000000000000000081526004016106ff906116a3565b60405180910390fd5b61071181611050565b610747576040517f4db0c48300000000000000000000000000000000000000000000000000000000815260040160405180910390fd5b610750816110bf565b610786576040517fcce31cc400000000000000000000000000000000000000000000000000000000815260040160405180910390fd5b60006001600083815260200190815260200160002090506002808111156107b0576107af611355565b5b8160030160149054906101000a900460ff1660028111156107d4576107d3611355565b5b1461080b576040517fbaf3f0f700000000000000000000000000000000000000000000000000000000815260040160405180910390fd5b60008160030160146101000a81548160ff0219169083600281111561083357610832611355565b5b02179055503481600101819055505050565b61084d611171565b600160008381526020019081526020016000206040518060a00160405290816000820154815260200160018201548152602001600282015481526020016003820160009054906101000a900473ffffffffffffffffffffffffffffffffffffffff1673ffffffffffffffffffffffffffffffffffffffff1673ffffffffffffffffffffffffffffffffffffffff1681526020016003820160149054906101000a900460ff16600281111561090457610903611355565b5b600281111561091657610915611355565b5b815250509050919050565b600060026000838152602001908152602001600020549050919050565b60008054906101000a900460ff161561098c576040517f08c379a0000000000000000000000000000000000000000000000000000000008152600401610983906116a3565b60405180910390fd5b610994610690565b73ffffffffffffffffffffffffffffffffffffffff163373ffffffffffffffffffffffffffffffffffffffff16146109f8576040517f5fc483c500000000000000000000000000000000000000000000000000000000815260040160405180910390fd5b610a0181611050565b610a37576040517f4db0c48300000000000000000000000000000000000000000000000000000000815260040160405180910390fd5b600060016000838152602001908152602001600020905060006002811115610a6257610a61611355565b5b8160030160149054906101000a900460ff166002811115610a8657610a85611355565b5b14610abd576040517fbaf3f0f700000000000000000000000000000000000000000000000000000000815260040160405180910390fd5b60008160030160009054906101000a900473ffffffffffffffffffffffffffffffffffffffff1673ffffffffffffffffffffffffffffffffffffffff168260010154604051610b0b906115c5565b60006040518083038185875af1925050503d8060008114610b48576040519150601f19603f3d011682016040523d82523d6000602084013e610b4d565b606091505b5050905080610b91576040517f08c379a0000000000000000000000000000000000000000000000000000000008152600401610b889061170f565b60405180910390fd5b60028260030160146101000a81548160ff02191690836002811115610bb957610bb8611355565b5b021790555060008260010181905550505050565b6000600354905090565b610bdf610690565b73ffffffffffffffffffffffffffffffffffffffff163373ffffffffffffffffffffffffffffffffffffffff1614610c43576040517f5fc483c500000000000000000000000000000000000000000000000000000000815260040160405180910390fd5b60008060006101000a81548160ff021916908315150217905550565b60008054906101000a900460ff1615610cad576040517f08c379a0000000000000000000000000000000000000000000000000000000008152600401610ca4906116a3565b60405180910390fd5b60008233604051602001610cc2929190611798565b604051602081830303815290604052805190602001209050610ce3816110bf565b15610d1a576040517fb0fc2d9700000000000000000000000000000000000000000000000000000000815260040160405180910390fd5b600060036000815480929190610d2f906117f3565b9190505590508160026000838152602001908152602001600020819055506040518060a001604052808281526020013481526020018481526020013373ffffffffffffffffffffffffffffffffffffffff16815260200160006002811115610d9a57610d99611355565b5b8152506001600084815260200190815260200160002060008201518160000155602082015181600101556040820151816002015560608201518160030160006101000a81548173ffffffffffffffffffffffffffffffffffffffff021916908373ffffffffffffffffffffffffffffffffffffffff16021790555060808201518160030160146101000a81548160ff02191690836002811115610e4057610e3f611355565b5b021790555090505050505050565b60008054906101000a900460ff16610e9b576040517f08c379a0000000000000000000000000000000000000000000000000000000008152600401610e9290611887565b60405180910390fd5b610ea3610690565b73ffffffffffffffffffffffffffffffffffffffff163373ffffffffffffffffffffffffffffffffffffffff1614610f07576040517f5fc483c500000000000000000000000000000000000000000000000000000000815260040160405180910390fd5b6000600460009054906101000a900473ffffffffffffffffffffffffffffffffffffffff1673ffffffffffffffffffffffffffffffffffffffff1647604051610f4f906115c5565b60006040518083038185875af1925050503d8060008114610f8c576040519150601f19603f3d011682016040523d82523d6000602084013e610f91565b606091505b5050905080610fd5576040517f08c379a0000000000000000000000000000000000000000000000000000000008152600401610fcc90611637565b60405180910390fd5b50565b610fe0610690565b73ffffffffffffffffffffffffffffffffffffffff163373ffffffffffffffffffffffffffffffffffffffff1614611044576040517f5fc483c500000000000000000000000000000000000000000000000000000000815260040160405180910390fd5b61104d8161112d565b50565b60008073ffffffffffffffffffffffffffffffffffffffff166001600084815260200190815260200160002060030160009054906101000a900473ffffffffffffffffffffffffffffffffffffffff1673ffffffffffffffffffffffffffffffffffffffff1614159050919050565b60003373ffffffffffffffffffffffffffffffffffffffff166001600084815260200190815260200160002060030160009054906101000a900473ffffffffffffffffffffffffffffffffffffffff1673ffffffffffffffffffffffffffffffffffffffff16149050919050565b80600460006101000a81548173ffffffffffffffffffffffffffffffffffffffff021916908373ffffffffffffffffffffffffffffffffffffffff16021790555050565b6040518060a00160405280600081526020016000815260200160008019168152602001600073ffffffffffffffffffffffffffffffffffffffff168152602001600060028111156111c5576111c4611355565b5b81525090565b600080fd5b6000819050919050565b6111e3816111d0565b81146111ee57600080fd5b50565b600081359050611200816111da565b92915050565b60006020828403121561121c5761121b6111cb565b5b600061122a848285016111f1565b91505092915050565b6000819050919050565b61124681611233565b811461125157600080fd5b50565b6000813590506112638161123d565b92915050565b60006020828403121561127f5761127e6111cb565b5b600061128d84828501611254565b91505092915050565b60008115159050919050565b6112ab81611296565b82525050565b60006020820190506112c660008301846112a2565b92915050565b600073ffffffffffffffffffffffffffffffffffffffff82169050919050565b60006112f7826112cc565b9050919050565b611307816112ec565b82525050565b600060208201905061132260008301846112fe565b92915050565b611331816111d0565b82525050565b61134081611233565b82525050565b61134f816112ec565b82525050565b7f4e487b7100000000000000000000000000000000000000000000000000000000600052602160045260246000fd5b6003811061139557611394611355565b5b50565b60008190506113a682611384565b919050565b60006113b682611398565b9050919050565b6113c6816113ab565b82525050565b60a0820160008201516113e26000850182611328565b5060208201516113f56020850182611328565b5060408201516114086040850182611337565b50606082015161141b6060850182611346565b50608082015161142e60808501826113bd565b50505050565b600060a08201905061144960008301846113cc565b92915050565b61145881611233565b82525050565b6000602082019050611473600083018461144f565b92915050565b611482816111d0565b82525050565b600060208201905061149d6000830184611479565b92915050565b60007fffffffffffffffffffffffffffffffff0000000000000000000000000000000082169050919050565b6114d8816114a3565b81146114e357600080fd5b50565b6000813590506114f5816114cf565b92915050565b60008060408385031215611512576115116111cb565b5b6000611520858286016114e6565b925050602061153185828601611254565b9150509250929050565b611544816112ec565b811461154f57600080fd5b50565b6000813590506115618161153b565b92915050565b60006020828403121561157d5761157c6111cb565b5b600061158b84828501611552565b91505092915050565b600081905092915050565b50565b60006115af600083611594565b91506115ba8261159f565b600082019050919050565b60006115d0826115a2565b9150819050919050565b600082825260208201905092915050565b7f5472616e73666572206661696c65642e00000000000000000000000000000000600082015250565b60006116216010836115da565b915061162c826115eb565b602082019050919050565b6000602082019050818103600083015261165081611614565b9050919050565b7f6973206e6f742073746f70706564210000000000000000000000000000000000600082015250565b600061168d600f836115da565b915061169882611657565b602082019050919050565b600060208201905081810360008301526116bc81611680565b9050919050565b7f5472616e73666572206661696c65642100000000000000000000000000000000600082015250565b60006116f96010836115da565b9150611704826116c3565b602082019050919050565b60006020820190508181036000830152611728816116ec565b9050919050565b6000819050919050565b61174a611745826114a3565b61172f565b82525050565b60008160601b9050919050565b600061176882611750565b9050919050565b600061177a8261175d565b9050919050565b61179261178d826112ec565b61176f565b82525050565b60006117a48285611739565b6010820191506117b48284611781565b6014820191508190509392505050565b7f4e487b7100000000000000000000000000000000000000000000000000000000600052601160045260246000fd5b60006117fe826111d0565b91507fffffffffffffffffffffffffffffffffffffffffffffffffffffffffffffffff82036118305761182f6117c4565b5b600182019050919050565b7f69732073746f7070656421000000000000000000000000000000000000000000600082015250565b6000611871600b836115da565b915061187c8261183b565b602082019050919050565b600060208201905081810360008301526118a081611864565b905091905056fea2646970667358221220e2221baadda0870081c9031b7eec12c9220153833b6ee5b3e1fa560a0ef2bce264736f6c63430008130033",
  "immutableReferences": {},
  "source": "// SPDX-License-Identifier: MIT\r\npragma solidity >=0.4.22 <0.9.0;\r\n\r\ncontract CourseMarketplace {\r\n\r\n  enum State {\r\n    Purchased,\r\n    Activated,\r\n    Deactivated\r\n  }\r\n\r\n  struct Course {\r\n    uint id; // 32\r\n    uint price; // 32\r\n    bytes32 proof; // 32\r\n    address owner; // 20\r\n    State state; // 1\r\n  }\r\n\r\n  bool public isStopped = false;\r\n\r\n  // mapping of courseHash to Course data\r\n  mapping(bytes32 => Course) private ownedCourses;\r\n\r\n  // mapping of courseID to courseHash\r\n  mapping(uint => bytes32) private ownedCourseHash;\r\n\r\n  // number of all courses + id of the course\r\n  uint private totalOwnedCourses;\r\n\r\n  address payable private owner;\r\n\r\n  constructor(){\r\n    setContractOwner(msg.sender);\r\n  }\r\n\r\n  /// Course has invalid state!\r\n  error InvalidState();\r\n\r\n  /// Course is not created!\r\n  error CourseIsNotCreated();\r\n\r\n  /// Course has already a Owner!\r\n  error CourseHasOwner();\r\n\r\n  /// Sender is not course owner!\r\n  error SenderIsNotCourseOwner();\r\n\r\n  /// Only owner has an access!\r\n  error OnlyOwner();\r\n\r\n  modifier onlyOwner() {\r\n    if (msg.sender != getContractOwner()) {\r\n      revert OnlyOwner();\r\n    }\r\n    _;\r\n  }\r\n\r\n  modifier onlyWhenNotStopped {\r\n    require(!isStopped,\"is not stopped!\");\r\n    _;\r\n  }\r\n\r\n  modifier onlyWhenStopped {\r\n    require(isStopped,\"is stopped!\");\r\n    _;\r\n  }\r\n\r\n  receive() external payable {}\r\n\r\n  function withdraw(uint amount) external onlyOwner {\r\n    (bool success, ) = owner.call{value: amount}(\"\");\r\n    require(success, \"Transfer failed.\");\r\n  }\r\n\r\n  function emergencyWithdraw() external onlyWhenStopped onlyOwner {\r\n    (bool success, ) = owner.call{value: address(this).balance}(\"\");\r\n    require(success, \"Transfer failed.\");\r\n  }\r\n\r\n  // function selfDestruct()\r\n  //   external\r\n  //   onlyWhenStopped\r\n  //   onlyOwner\r\n  // {\r\n  //   selfdestruct(owner);\r\n  // }\r\n\r\n  function stopContract() external onlyOwner {\r\n    isStopped = true;\r\n  }\r\n\r\n  function resumeContract() external onlyOwner {\r\n    isStopped = false;\r\n  }\r\n\r\n  function purchaseCourse(bytes16 courseId, bytes32 proof) external payable onlyWhenNotStopped {\r\n    bytes32 courseHash = keccak256(abi.encodePacked(courseId, msg.sender));\r\n\r\n    if (hasCourseOwnership(courseHash)) {\r\n      revert CourseHasOwner();\r\n    }\r\n\r\n    uint id = totalOwnedCourses++;\r\n\r\n    ownedCourseHash[id] = courseHash;\r\n    ownedCourses[courseHash] = Course({\r\n      id: id,\r\n      price: msg.value,\r\n      proof: proof,\r\n      owner: msg.sender,\r\n      state: State.Purchased\r\n    });\r\n  }\r\n\r\n  function repurchaseCourse(bytes32 courseHash) external payable onlyWhenNotStopped {\r\n    if (!isCourseCreated(courseHash)) {\r\n      revert CourseIsNotCreated();\r\n    }\r\n\r\n    if (!hasCourseOwnership(courseHash)) {\r\n      revert SenderIsNotCourseOwner();\r\n    }\r\n\r\n    Course storage course = ownedCourses[courseHash];\r\n\r\n    if (course.state != State.Deactivated) {\r\n      revert InvalidState();\r\n    }\r\n\r\n    course.state = State.Purchased;\r\n    course.price = msg.value;\r\n  }\r\n\r\n  function activateCourse(bytes32 courseHash) external onlyWhenNotStopped onlyOwner {\r\n    if (!isCourseCreated(courseHash)) {\r\n      revert CourseIsNotCreated();\r\n    }\r\n\r\n    Course storage course = ownedCourses[courseHash];\r\n\r\n    if (course.state != State.Purchased) {\r\n      revert InvalidState();\r\n    }\r\n\r\n    course.state = State.Activated;\r\n  }\r\n\r\n  function deactivateCourse(bytes32 courseHash)\r\n    external\r\n    onlyWhenNotStopped\r\n    onlyOwner\r\n  {\r\n    if (!isCourseCreated(courseHash)) {\r\n      revert CourseIsNotCreated();\r\n    }\r\n\r\n    Course storage course = ownedCourses[courseHash];\r\n\r\n    if (course.state != State.Purchased) {\r\n      revert InvalidState();\r\n    }\r\n\r\n    (bool success, ) = course.owner.call{value: course.price}(\"\");\r\n    require(success, \"Transfer failed!\");\r\n\r\n    course.state = State.Deactivated;\r\n    course.price = 0;\r\n  }\r\n\r\n  function transferOwnership(address newOwner) external onlyOwner {\r\n    setContractOwner(newOwner);\r\n  }\r\n\r\n  function getCourseCount() external view returns (uint) {\r\n    return totalOwnedCourses;\r\n  }\r\n\r\n  function getCourseHashAtIndex(uint index) external view returns (bytes32) {\r\n    return ownedCourseHash[index];\r\n  }\r\n\r\n  function getCourseByHash(bytes32 courseHash) external view returns (Course memory) {\r\n    return ownedCourses[courseHash];\r\n  }\r\n\r\n  function getContractOwner() public view returns (address) {\r\n    return owner;\r\n  }\r\n\r\n  function setContractOwner(address newOwner) private {\r\n    owner = payable(newOwner);\r\n    // owner.transfer(10);\r\n  }\r\n\r\n  function isCourseCreated(bytes32 courseHash) private view returns (bool) {\r\n    return ownedCourses[courseHash].owner != 0x0000000000000000000000000000000000000000;\r\n  }\r\n\r\n  function hasCourseOwnership(bytes32 courseHash) private view returns (bool) {\r\n    return ownedCourses[courseHash].owner == msg.sender;\r\n  }\r\n}",
  "sourcePath": "G:\\Apps\\solidity-eth-next\\marketplace-eth\\contracts\\CourseMarketplace.sol",
  "compiler": {
    "name": "solc",
    "version": "0.8.19+commit.7dd6d404.Emscripten.clang"
  },
  "schemaVersion": "3.4.14",
  "updatedAt": "2023-07-30T15:27:11.531Z",
  "networkType": "ethereum",
  "devdoc": {
    "kind": "dev",
    "methods": {},
    "version": 1
  },
  "userdoc": {
    "errors": {
      "CourseHasOwner()": [
        {
          "notice": "Course has already a Owner!"
        }
      ],
      "CourseIsNotCreated()": [
        {
          "notice": "Course is not created!"
        }
      ],
      "InvalidState()": [
        {
          "notice": "Course has invalid state!"
        }
      ],
      "OnlyOwner()": [
        {
          "notice": "Only owner has an access!"
        }
      ],
      "SenderIsNotCourseOwner()": [
        {
          "notice": "Sender is not course owner!"
        }
      ]
    },
    "kind": "user",
    "methods": {},
    "version": 1
  }
}